:400000000080002011000000D11E0000D11E000008B5044B1A6803F53F5302331A6001F077FF00BFFA46004010B5054C237833B9044B13B10448AFF300800123237010BD22
:400040007081FF1F00000000B0450000084B10B51BB108490848AFF300800848036803B910BD074B002BFBD0BDE81040184700BF000000007481FF1FB0450000C880FF1FC8
:400080000000000010B50221002002F03DFB00240AE002F071FB10B102F0C4FC10BD052002F072F80134E4B2632CF2D910BD00BF10B5044602F060FB30B102F04FFD00288D
:4000C000FBD0204602F0FAFC10BD00BF70B5ADF58D6D62B6012002F0D9F902F043F9FFF7D1FF4FF47A7002F04FF8012002F0E2F9002303E0464A42F823300133B3F5805F77
:40010000F8D3444D444C0FCC28606960AA60EB602288A3782A82AB742846FFF7C9FF0A2002F032F801223D498DA801F03FFB78B13B4C0FCC28606960AA60EB6003CC2861BE
:4001400069612846FFF7B4FF002002F0B3F9FEE7304C344D0FCD20606160A260E3602B8823822046FFF7A4FF0A2002F00DF82E4B07CB20606160A2601B88A3812046FFF773
:4001800097FF0A22294903A801F03AFB044603F0F9FC5CB331E003F0C7FC0646002406E002AB2A461A4903A801F012FC0134B4F57A7FF5DB03A801F0E1FC03F0B5FC341AA0
:4001C0000A2001F0E1FF4FF47A7303FB05F3114EB3FBF4F3009323462A461549304603F0C3FD3046FFF764FF6D0000E00125B5F5004FD0DD03A801F00FFD02F053F9C04326
:40020000C0B202F043F94FF4FA6001F0BDFFF4E7EC81FF1FAC81FF1FB44500008C460000C8450000E0450000F4450000044600001046000008B5012002F01CF90A2001F04D
:40024000A3FF08BD08B502F047F802F039F810F0010FFAD002F04CF808BD00BF38B50546002409E0FF20FFF7EDFFFF2808D04FF47A7001F09FFF0134AC42F3D3002038BD73
:40028000012038BD08B5012002F0F4F8FF20FFF7D9FF08BD10B5002002F0ECF8FF20FFF7D1FF4FF4FA70FFF7D9FF18B90446FFF7E9FF00E00124204610BD00BF38B5044678
:4002C0000D4610F0800F07D000F07F0400213720FFF7F4FF012833D80C2C04D0FFF7D2FFFFF7D8FF58B344F04000FFF7ABFF280EFFF7A8FFC5F30740FFF7A4FFC5F3072034
:40030000FFF7A0FFE8B2FFF79DFF0CB1012000E09520082C00D18720FFF794FF0C2C02D1FF20FFF78FFF0A24FF20FFF78BFF10F0800F05D0631E13F0FF04F5D138BDFF2014
:4003400038BD00BF70B506460D46002404E0FF20FFF778FF30550134AC42F8D370BD00BFF8B506460F4600240AE0FF20FFF76AFF0546FF2806D14FF47A7001F01BFF013482
:40038000C72CF2D9FE2D0BD139463046FFF7DAFFFF20FFF757FFFF20FFF754FF0120F8BD0020F8BD70B506460D46002403E0305DFFF748FF0134AC42F9D370BD38B505464D
:4003C0000C464FF4FA70FFF749FF0346D8B12046FFF738FFFD2C13D04FF400712846FFF7E1FFFF20FFF72EFFFF20FFF72BFFFF20FFF728FF00F01F00052803D0002302E086
:40040000012300E00123184638BD00BF18B9034B1878C0B270470120704700BFCC80FF1F002840F0AD8070B582B0FFF703FF564B1B7813F0020F03D0534B1878C0B2A1E099
:400440000121A02001F0AAFF0A2404E0FF20FFF7F9FE013CE4B2002CF8D100210846FFF72DFF01286BD14FF4D5710820FFF726FF012842D109E0FF20FFF7E4FE02AB2B4420
:4004800003F8040C0135EDB200E02546032DF2D99DF80630012B54D19DF80730AA2B0DD0002557E04FF08041A920FFF707FF48B14FF47A7001F07EFE013500E00025B5F5E3
:4004C0007A7FEFD3002D3ED000213A20FFF7F6FE50B100253EE0FF20FFF7B4FE02AB234403F8040C0134E4B2032CF4D99DF8043013F0400F29D00C252CE00021A920FFF77F
:40050000DDFE012802D80225A92601E001252E46002409E000213046FFF7D0FE38B14FF47A7001F047FE0134B4F57A7FF2D374B14FF400711020FFF7C1FE50B90AE0002546
:4005400008E0002506E0002504E0042502E0002500E000250D4B1D70FFF794FE4DB10121084601F01BFF084A137803F0FE03137002E00122044B1A70034B1878C0B201E001
:400580000120704702B070BDCC80FF1F8C81FF1FB8BB38B50D461C46ABB31D4B1B7813F0010F32D11B4B1B7813F0080F00D15202012C0BD111461120FFF780FED8B94FF45A
:4005C00000712846FFF7CCFEA0B914E011461220FFF774FE78B94FF400712846FFF7C0FE18B105F50075013CF5D100210C20FFF765FE00E00024FFF745FE201C18BF0120C5
:4006000038BD04207047042038BD032038BD00BFCC80FF1F8C81FF1F002846D170B50D4616461C46002B42D0244B1B7813F0010F3FD1224B1B7813F0040F3CD1204B1B786D
:4006400013F0080F00D15602012C0AD131461820FFF734FE18BBFE212846FFF7AFFED8B91DE013F0060F03D021469720FFF726FE31461920FFF722FE88B9FC212846FFF71C
:400680009DFE18B105F50075013CF6D1FD210020FFF794FE10B102E0002400E00124FFF7F1FD201C18BF012070BD04207047042070BD032070BD022070BD00BFCC80FF1F98
:4006C0008C81FF1F002840F00D8103468848007810F0010F40F0088130B585B018461446042900F2E080DFE801F0030ADE52AD00FFF7D0FD002840F0D8800124EEE0002115
:400700000920FFF7DBFD002840F0D18010216846FFF726FE002800F0CC809DF800309B09012B10D19DF809309DF8082003EB02229DF807301B0403F47C13134401339B0210
:4007400023600024CAE09DF805209DF80A109DF809305B0002F00F0202EBD11203F0060313440233DBB29DF808109DF80720920002EB91119DF80620920202F440620A44EF
:400780000132093B02FA03F323600024A6E0594B1B7813F0040F21D000218D20FFF78EFD002840F08880FF20FFF74CFD10216846FFF7D6FD38B9012490E0FF20FFF742FDD6
:4007C000013DEDB200E03025002DF6D19DF80A301A0910239340236000247FE000210920FFF76CFD002868D110216846FFF7B8FD002864D03F4B1B7813F0020F11D09DF85E
:400800000A305B0003F07E039DF80B2003EBD21301339DF80D209209013A9340236000245CE09DF80A30C3F384019DF80B30DA0002F0180202EB5312531C01FB0333236064
:4008400000244BE02B4A127812F0060F39D06A460B21FFF737FFB0BB9DF800309B0904D19DF80A3013F0400F2FD021686468214B1B7813F0080F01D1490264022020FFF712
:400880001DFD20BB21462120FFF718FD08BB00212620FFF713FDF0B947F23050FFF7DEFCD8B901241AE0042418E0002416E0012414E0012412E0012410E001240EE00124C7
:4008C0000CE001240AE0012408E0012406E0012404E0012402E0012400E00024FFF7D2FC204603E0042070470320704705B030BDCC80FF1F8C81FF1F4278007840EA022035
:40090000704700BFC278837843EA0222437843EA0223007840EA0320704700BF0170090A417070470170C1F307234370C1F307438370090EC170704713462AB10A7802706D
:4009400001300131013BF9D1704700BF01700130013AFBD1704700BF30B4451C037808781B1A013A04D04C1C28462146002BF4D0184630BC704700BF00E0013003780BB1C1
:400980008B42FAD118467047802807D99F2807D9DF2807D9FC2807D900207047002070470120704700207047012070473F2808D97E2808D9802801D3FC2806D938B10020E4
:4009C00070470020704701207047012070470120704700BF02398369023B994204D2C36A408900FB013070470020704770B506460D4601F11A00FFF77FFF04463378032BF6
:400A000005D105F11400FFF777FF44EA004070BD70B506460C46154691B204F11A00FFF77DFF3378032B04D1290C04F11400FFF775FF70BD2DE9F04F83B001908B460D680B
:400A400000F120090B2220214846FFF77FFF2B782E2B1FD100210B465A1CEB5C2E2B06D1022A04D809F8013013460131F4E72F2B03D05C2B01D0202B6ED81544CBF800507F
:400A8000202B01D8242300E02023019A82F82B3000206EE00026B0464FF0080A08F1010715F80840202C40D92F2C03D05C2C07D100E00137EB5D2F2BFBD05C2BF9D034E02B
:400AC0002E2C01D0B24509D8BAF10B0F46D02E2C46D1B84608264FF00B0ADFE72046FFF753FF88B108F10208EF5D3846FFF75EFFC0B30AF1FF339E4236D2731C09F80640FC
:400B000009F803700236C9E721461B48FFF734FF60BBA4F16103DBB2192B01D8203CE4B209F806400136B846B8E73D44CBF80050F6B1019B93F82030E52B03D10523019A42
:400B400082F82030202C01D8042300E00023019A82F82B3000200CE006200AE0062008E0062006E0062004E0062002E0062000E0062003B0BDE8F08F2446000010B4046807
:400B8000FCB12246511C1378202B02D90A463A2BF8D13A2B12D12378A3F13002D2B2092A04D80234A14203D1303B02E0012300E00123002B08DC0160184607E0044B187852
:400BC00004E04FF0FF3001E04FF0FF3010BC70479081FF1F38B50D46044678B103687BB11A787AB18188DA8891420DD15878FFF70DFC10F0010F09D0092008E0092006E0A7
:400C0000092004E0092002E0092000E0002008B9236800E000232B6038BD00BF38B5C378E3B1044600F134050123026B29464078FFF7F2FCA0B90023E370216B636ACB1A0C
:400C4000E26993420ED2A378022B0DD101230A4429466078FFF7E0FC002038BD002038BD012038BD002038BD002038BD70B5036B8B4212D004460D46FFF7D0FF064668B948
:400C800001232A4604F134016078FFF781FC10B101264FF0FF35256300E00026304670BD10B504460023C3704FF0FF330363FFF7DDFFF0B904F23220FFF71EFE4AF65523D6
:400CC000984218D194F83430E92B03D0EB2B01D0E82B12D103220C4904F16A00FFF73CFE68B10522094904F18600FFF735FE40B910BD042010BD032010BD022010BD002088
:400D000010BD022010BD00BF344600003846000070B584B006460D460021FFF7C1FF022812D029D845B300240FE006F13400230103F5E3731844FFF7E5FD04AB03EB840364
:400D400043F8100C013400E00024032CEDD90DB16C1E00E0002404AB03EB840353F8101C19B13046FFF79CFF00E0032025B9012802D90134032CEED904B070BD2DE9F047F8
:400D80000E46174600230B60FFF7F8FE051EC0F20E81A64B03EB85035C68002C00F00A81346007F0FE0723787BB16078FFF72EFB10F0010F09D1002F00F0FF8010F0040FE9
:400DC00040F0FE800020BDE8F08700232370E8B26070FFF725FB10F0010F40F0F4801FB110F0040F40F0F28000212046FFF790FF042800F0EE80012800F2EE80266B04F1F5
:400E00003F00FFF779FDB0F5007F40F0E88004F14A00FFF771FD804620B904F15800FFF771FD8046C4F81C8094F8449084F8029009F1FF33DBB2012B00F2D48008FB09F99C
:400E400094F841506581002D00F0CF806B1E1D4240F0CE8004F14500FFF74EFD8246208110F00F0F40F0C78004F14700FFF744FD074620B904F15400FFF744FD074604F1C9
:400E80004200FFF739FD0346002800F0B78009EB000202EB1A129742C0F0B380BF1AB7FBF5F5002D00F0B08061498D4201D9002700E003274FF6F5718D4200D8022740F66A
:400EC000F5718D4200D80127002F00F0A0800235A5612662334463623244E262032F11D104F15E00FFF708FD002840F09380BAF1000F40F0928004F16000FFF703FDA062AD
:400F0000AD000FE0BAF1000F00F08A804B44A362022F01D16D0005E005EB450305F0010505EB530505F2FF15B8EB552F7BD34FF0FF332361E36080232371032F2CD104F1EA
:400F40006400FFF7D9FC012826D1711C2046FFF78DFE08BB0023237104F23220FFF7CCFC4AF65523984217D104F13400FFF7CAFC304B984210D104F50670FFF7C3FC2E4BFC
:400F8000984209D104F50770FFF7BCFC206104F50870FFF7B7FCE0602770244A138901339BB21381E38000206061BDE8F0870B20BDE8F0870C20BDE8F0870020BDE8F087A3
:400FC0000A20BDE8F0870320BDE8F0870A20BDE8F0870120BDE8F0870D20BDE8F0870D20BDE8F0870D20BDE8F0870D20BDE8F0870D20BDE8F0870D20BDE8F0870D20BDE861
:40100000F0870D20BDE8F0870D20BDE8F0870D20BDE8F0870D20BDE8F0870D20BDE8F0870D20BDE8F0870D20BDE8F0879081FF1FF5FFFF0F52526141727241612DE9F047F0
:40104000012975D98369994274D217460C4606460378022B3ED0032B4FD0012B6CD101EB5108416A01EB5821FFF700FE0546002863D106F1340A08F10109C8F3080814F08D
:40108000010407D01AF8083003F00F0343EA0713DBB200E0FBB20AF808300123F370716A01EB59213046FFF7E1FD0546002844D1C9F3080914B1C7F3071206E01AF809303A
:4010C00023F00F03C7F303221A430AF809200123F37032E0416A01EB1421FFF7C7FD054658BB06F13400630003F4FF73B9B21844FFF714FC0123F3701FE0416A01EBD41121
:40110000FFF7B4FD0546C0B927F0704706F13403A10001F4FE715C182046FFF7F3FB00F0704139432046FFF7FDFB0123F37004E0022502E0022500E002252846BDE8F087E8
:40114000F8B50668012953D9B369994252D20C463378022B2AD0032B38D0012B4CD101EB5105716A01EB55213046FFF77FFD002844D16F1CC5F30805354495F83450716AE7
:4011800001EB57213046FFF771FD002839D1C7F30803334493F8340045EA002014F0010F01D00009F8BDC0F30B00F8BD716A01EB14213046FFF75AFD30BB06F13400610029
:4011C00001F4FF710844FFF797FBF8BD716A01EBD4113046FFF74AFDC8B906F13403A10001F4FE701844FFF78DFB20F07040F8BD0120F8BD0120F8BD0120F8BD4FF0FF30B0
:40120000F8BD4FF0FF30F8BD4FF0FF30F8BD4FF0FF30F8BD2DE9F0410768B1F5001F3DD206460C4611F01F0F3BD1316185681DB93B78022B00D9BD6A35B93B89B3EB541F35
:4012400032D9BB6AB3611AE0B7F80A804FEA48280EE029463046FFF773FF0546B0F1FF3F25D0012826D9BB69984226D2C8EB04044445EED229463846FFF7ACFBB061756161
:40128000B369EBB103EB5423B36107F13403C4F308042344F3610020BDE8F0810220BDE8F0810220BDE8F0810220BDE8F0810120BDE8F0810220BDE8F0810220BDE8F081CB
:4012C0000220BDE8F08100BF2DE9F04107460668884629B9F5687DB1B3699D420ED20EE0FFF72EFF012869D9B0F1FF3F74D0B369984271D3454602E0012500E001253069D4
:40130000002869D0454516D16C1CB3699C4200D3022421463846FFF713FF01285CD0B0F1FF3F59D068B1F368012B06D9B269934205D3002405E0002403E0002401E01D4657
:401340000024A4B92C460134B3699C4202D3012D37D9022421463846FFF7F2FE38B1012832D0B0F1FF3F31D0AC42ECD130E04FF0FF3221463046FFF761FE034640B9B8F10B
:40138000000F05D0224641463046FFF757FE034673B9F4603269B369023B9A4201D8013A3261337943F0010333712046BDE8F081012B10D14FF0FF30BDE8F0810120BDE8FF
:4013C000F0810020BDE8F081BDE8F081BDE8F0810020BDE8F0810120BDE8F081F8B50E46046801292CD907461146A3699E4229D22AB14FF0FF322046FFF720FE20BB31466F
:401400003846FFF79DFE0546F8B101281FD0B0F1FF3F1ED0002231462046FFF70FFED0B92369A269911E8B4205D201332361237943F0010323712E469542E0D30020F8BD5D
:401440000220F8BD0220F8BDF8BD0020F8BD0220F8BD0120F8BDF8BDF8B505460C46FFF7DDFB00BB21462846FFF7B4FA0746286305F134064FF4007200213046FFF766FADC
:40148000002400E001346B899C4207D20123E21931466878FFF7C0F80028F3D06889001B18BF0120F8BD0120F8BD00BF2DE9F843066805692035B5F5001F01D300238361C5
:4014C0008369002B48D088460446C5F30807002F3BD101338361416941B93389B3EB551F33D8002383610420BDE8F8837389013B13EA552329D1FFF723FE814601282ED90E
:40150000B0F1FF3F2ED0B369984217D3B8F1000F04D10023A3610420BDE8F88361692046FFF7D2FE814600B3012821D0B0F1FF3F21D001463046FFF78FFFF8B9C4F814904A
:4015400049463046FFF746FAA061256134363E44E6610020BDE8F8830420BDE8F8830220BDE8F8830120BDE8F8830720BDE8F8830220BDE8F8830120BDE8F8830120BDE8DF
:40158000F88300BF70B5044606680021FFF742FEE8B9A1693046FFF769FB0546C0B9E0690378B3B1C37A03F03F03A371C37A13F0080F05D10B2204F12001FFF7CDF950B1A3
:4015C00000212046FFF772FF0028E2D070BD70BD70BD042070BD284670BD00BF70B582B00446019105680B782F2B06D05C2B04D06B69836009E001330193019B1A782F2A54
:40160000F9D05C2AF7D00023A360019B1B781F2B08D8802384F82B3000212046FFF7FAFD064635E001A92046FFF704FA064678BB2046FFF7A7FF94F82B3080B1042820D10C
:4016400013F0200F06D013F0040FEBD0802384F82B301DE013F0040F15D0064618E013F0040F12D1A37913F0100F10D005F134012369C3F3080319442846FFF7B7F9A060DB
:40168000D0E7064604E0052602E0064600E00526304602B070BD00BFF8B504460F4606680021FFF7B7FD0246B8B90025A1693046FFF7DCFA024680B9E3691B78E52B00D0DC
:4016C0001BB90135BD4201D107E0002501212046FFF7ECFE02460028E8D0042A00D107221046F8BD70B5044606680121FFF7D4FF054690B9A1693046FFF7B8FA054660B958
:4017000020220021E069FFF721F90B2204F12001E069FFF711F90123F370284670BD00BF70B50446FFF77AFA0546002837D12378032B2DD12379012B2AD104F134064FF430
:40174000007200213046FFF701F94AF6552104F23220FFF7E3F813493046FFF7E3F8124904F50670FFF7DEF8216904F50770FFF7D9F8E16804F50870FFF7D4F8226A01326C
:401780002263012331466078FEF746FF00232371002211466078FEF795FF00B10125284670BD00BF525261417272416110B584B001900091144604A840F8041DFFF7DEF922
:4017C000002816DB0D4B03EB80035B680BB100221A70019B0BB100221A70084B03EB8000019B43603CB1002201A96846FFF7C6FA02E00B2000E0002004B010BD9081FF1FFE
:401800002DE9F0418EB00191002800F0D8800546164602F03F073A4602A901A8FFF7AEFA0446002840F0C680029B0393019903A8FFF7D4FE044620B99DF93730002B00DA83
:40184000062416F01C0F4BD044B1042C03D103A8FFF748FF044647F008070BE09DF8123013F0110F03D116F0040F02D102E0072400E00824002C43D117F0080F40D00A9EAD
:4018800031460298FFF7B2F88046504906F10E00FFF748F820220A9BDA7200220A990298FFF7B6F800210A981C30FFF73BF80122029BDA70B8F1000F22D0029B1E6B002273
:4018C000414603A8FFF78AFD0446C8B931460298FFF7CCF9044608F1FF33029AD3600FE074B99DF8123013F0100F06D116F0020F06D013F0010F02D102E0042400E007248A
:401900004CB917F0080F01D047F04007029B1B6B2B620A9B6B62002C4CD1029EDDF8288041463046FFF762F8A86008F11C00FEF7E9FFE8602E60F388AB802F740021697449
:40194000E961696105F128084FF400724046FEF7FDFF17F0200F2DD0EE685EB36E61029B5F897F02A9680BE02846FFF7E9FB0146012800D80224B1F1FF3F00D10124F61BF9
:401980000CB9BE42F0D8A961A4B9C6F308038BB1029F3846FFF71EF848B100EB5622EA61012341467878FEF7F3FD10B902E0022400E001242CB100232B60204602E009200F
:4019C00000E020460EB0BDE8F08100BF0000214E2DE9F04F85B00446884616461F4600233B60019003A9FFF7F5F8002840F0C180607C002840F0BF80237C13F0020F00F0AF
:401A0000B9806369F342C0F0AB80DE43A8E06369C3F30802002A40F08380039AB2F80A9009F1FF3919EA53291DD133B9A06840B900210198FFF748FC03E0A1690198FFF722
:401A400043FC002800F08F80012802D10220607491E0B0F1FF3F02D1012060748BE0A061A36803B9A06094F91030002B0FDA0123E26904F1280103984078FEF7CDFD10B182
:401A80000120607477E0237C03F07F032374DDF80CB0A1695846FEF79DFF824610B90220607468E0CA44750A25D009EB0503BBF80A20934201D9C9EB02052B465246414641
:401AC0009BF80100FEF7A8FD10B10120607452E0E169CAEB01018D420BD94FF4007208EB412104F12800FEF727FF237C03F07F0323746D0227E0E3699A450FD06269E36899
:401B00009A420BD20123524604F128019BF80100FEF73EFD10B1012060742CE0C4F81CA06369C3F30803C3F50075AE4200D2354604F128002A4641461844FEF7FDFE237C1E
:401B400063F07F032374761B3B682B443B60A84463691D446561E3689D4238BF1D46E560002E7FF454AF237C43F040032374002001E000E0072005B0BDE8F08F30B583B0CA
:401B8000044601A9FFF726F800283CD1227C12F0400F39D012F0800F0CD00123E26904F1280101984078FEF737FD70BB237C03F07F032374216A0198FFF758F838BB656A7A
:401BC000EB7A43F02003EB72A26829462068FEF71FFFE16805F11C00FEF7A4FE0D4905F11600FEF79FFE002105F11200FEF796FE0122019BDA700198FFF792FD237C23F048
:401C00004003237403E002E001E00120FFE703B030BD00BF0000214E10B582B00446FFF7ADFF034638B901A92046FEF7D3FF034608B900222260184602B010BDFEE700BF2C
:401C4000F0B40022174611E050F82760F3B226F0FF0608E001EB420511F812406D78A5550132013BDBB2002BF4D10137142FEBD9F0BC7047064B1B78DBB203F00701054A23
:401C800011701B09013213704422034B1A707047CF0100496E5800407658004008B50A46002102F058F808BD38B59F22354B1A801823354A13704FF6FF110232118002321F
:401CC00013700622314B1A7043F21332EE3B1A80023B05221A701B7843F2C82404E04FF4F07001F0C1FF013C24B1294B1B7813F0800FF4D114B90120FFF7A0FF40F61802D9
:401D0000244B1A8001224FF040231A7041F2512203F508731A80002419250CE01E4B1B7803F0010343EA440404F003044FF4F07001F09AFF013D0DB1032CEFD115B90320DE
:401D4000FFF77CFF154A4FF48073138041214FF040231970702103F5007319700723137000230F490B7048200231087013700532137002220B4B1A700B4A137843F00303A8
:401D8000137038BD804000408240004000430040104200402242004025420040044000400640004001400040A243004008B501F0C7FF08BD38B572B600240CE0344D630057
:401DC00019194A0011462A44084691882858FFF765FF0134E4B2072CF0D900240BE02C49A3001819420088188022416B006BFFF7DDFF0134E4B2002CF1D026494FF090409F
:401E0000FFF71EFF04212448FFF748FF04212348FFF744FF04212248FFF740FF214A137843F0020313701032137843F0020313701D4C237843F040032370A2F58632513A14
:401E4000137843F010031370082218491848FFF7ADFF0A2217491848FFF7A8FF082217491748FFF7A3FF174A137843F008031370154D61232B70FFF717FF01232B70FFF788
:401E8000F9FE0E2221461148FFF790FF38BD00BF404600005400004800760040087600401076004003500140A043004048030048C251004050030048F05100405C03004846
:401EC000125100402243004000480040B043004008B501F009FF03680C2B00D1FEE7FEE708B5094B1A681044084BC31AB3F5004F02DC054B186005E001F0F6FE0C230360DC
:401F00004FF0FF32104608BDD080FF1FE0C2FF1F08B5104E104D16E029686B68AC68002204E051F8040B43F8040B0432A242F8D1E868002203E0002143F8041B04328242AD
:401F4000F9D11035013E002EE6D101F0D3FEFEF7BDF8FEE7010000004848000008B5114A114B1A60114A136843F40073136000230AE0032B03D80E4A52F8231000E00D494A
:401F80000D4A42F8231001332F2BF2D90B4B1A780B4B1A70084A0B4B1A60FFF70BFF00F013F808BD0004FA050CED00E014ED00E000000000D11E00000080FF1FBC7600409E
:401FC000C080FF1F08ED00E00B4A7F2313708021517007E0DA0002F1804202F5F042013BDBB21370002BF5D1DB0003F1804303F5F04300221A707047D480FF1F172815D838
:4020000031B103010A495A5C42F020025A5405E0030107495A5C02F0DF025A540001044A835C43F00103835400207047012070471070004017280BD80001064BC25C02F010
:40204000FE02C254C25C02F0DF02C25400207047012070471070004017280BD80001064A835C03F0F103490001F00E011943815400207047012070471070004041F6FF7309
:40208000994201D14FF4005141F6FF739A4201D14FF40052172808D8C00000F1804000F5EC408180C280002070470120704700BF172805D8034B03EB00104172002070479F
:4020C000012070471070004017281BD810B4C00000F1804404F5EC44D201D2B201F07F01114321709DF804201201D2B203F00F03134363709DF8083003F00F03A370002084
:40210000E07001E00120704710BC704710B501F0B3FD0A4B5B78182B0BD9084A1478013B5370E30003F1804303F5F0431B78137000E0FF2401F0A4FD204610BDD480FF1F6C
:4021400010F0800F0CD111F4704F0BD1C00000F1804000F5F04001808270C37000207047012070470120704710F0800F08D1C00000F1804000F5F0408180C2800020704778
:402180000120704701BE704710B5044605E0084B186801F069FDA4F50044B4F5004FF6D8034B586800FB04F001F05EFD10BD00BFDC80FF1F08B5034B1B7A00FB03F001F042
:4021C00053FD08BDDC80FF1F70B504460E46074B1D681F2802D90020FFF7D4FF04F01F04103455F8240045F8246070BD08ED00E038B504460D46072902D90020FFF7C2FFB0
:402200001F2C02D90020FFF7BDFF04F01F0000F1604000F564406D01EDB2057038BD00BF134B1B78DBB20360124A127843EA02230360114A127843EA024303600F4A12781A
:4022400043EA026303600E4B1B78DBB243600D4A127843EA022343600B4A127843EA024343600A4A127843EA02634360704700BF0301004904010049EC46004002010049A1
:402280000101004900010049050100490601004908B501F0F1FC094A137843F020031370013A137843F01003137002F20112137843F01003137001F0E3FC08BD99640040DC
:4022C000014B1878704700BF68640040014B1878704700BF69650040034B1B7813F0040FFAD0024B187070476864004049640040014B1878704700BF5964004008B501E0ED
:402300000A4B1B780A4B1B7813F0200FF8D101F0B3FC084B1A7842F001021A701A7802F0FE021A7001F0ACFC08BD00BF59640040696500409964004008B50F22074B1A7051
:40234000FFF7DCFFFFF7BCFFFFF7C0FF0023044A137002F20112137008BD00BF896400408864004008B5054B1B7823B9FFF7E4FF0122024B1A70FFF78BFF08BD9A81FF1FFE
:40238000014B188880B2704780400040024B187800F00700704700BF8240004070B505460E46FFF7F3FF0446FFF7EAFFA84256D02B4B1B7803F0010294B900B185B938B9EB
:4023C000284B1D80284A137803F0BF03137070BD254A137843F040031370224B1D8070BD22B3002321490B7001240F310C7004310B700C390B7803F07F030B701A4B1B7823
:4024000013F0080F00D08DB9194B18800721013B1970164B1B7813F0010FFAD110490B7803F0FE030B700021104B19700C4B1B7813F0010F0DD00E4B1D800EB1032200E0CD
:4024400001220A4B1A70094B1B7813F0010FFAD170BD044B1D8002490B7813430B7070BDA243004080400040824000400140004002400040044A137803F0FB03800000F04C
:40248000040018431070704710510040044A137803F0EF03000100F01000184310707047C0510040024B1878C0F30010704700BFC1510040044A137803F0DF03400100F0FC
:4024C0002000184310707047C0510040F8B501F0D3FB0546484A137843F0010313701032137843F0010313700127444B1F700226943B1E7002F5E2521B32137803F07F0381
:4025000013700020FFF756FE3D4C237803F0F90323703C4A137803F0DF03137023783B4323703846FFF746FE2820FFF743FE364B1A7802F07F021A701A7802F0BF021A70DD
:402540002378334323703046FFF734FE237843F00403237000232D4A13700132137004E0FF212B4AD15401339BB2082BF8D9284601F086FB07211720FFF73AFE25491720A9
:40258000FFF722FE07211820FFF732FE22491820FFF71AFE07211520FFF72AFE1F491520FFF712FE07210020FFF722FE1C490020FFF70AFE07210120FFF71AFE19490120F5
:4025C000FFF702FE07210220FFF712FE16490220FFF7FAFD00211620FFF70AFE13491620FFF7F2FD07210C20FFF702FE10490C20FFF7EAFDF8BD00BFA54300409D600040D6
:402600009443004012600040F851004084600040F8C1FF1FDD300000C52E0000D930000039300000693000009D300000E53000008931000008B5264B18700023254A1370DB
:40264000254A1370254A1370254A1370254A1370254A1370254A1370254B4FF400021A604FF080721A604FF400121A6001221A6002221A6004221A6007201E4A10704FF4D8
:4026800080021A6020221C4B1A7011B1012906D00BE01A4A137803F0FE0313700AE0174A137843F00103137004E0144A137843F0010313700322124B1A708022203B1A702E
:4026C000012001F0D1FA04220E4B1A7008BD00BF1DC2FF1F20C2FF1F3CC2FF1F3FC2FF1F34C2FF1F3EC2FF1F41C2FF1F1CC2FF1F00E100E09E6000409C6000400960004005
:40270000286000401260004038B504460D46064B1B7823B9FFF7DAFE0122034B1A7029462046FFF787FF38BD9B81FF1F00230A4A13700A4A13700A4A13700A4A13700A4AB9
:4027400013700A4A13700A4A13700322094B1A708022203B1A70704720C2FF1F3CC2FF1F3FC2FF1F34C2FF1F3EC2FF1F41C2FF1F1CC2FF1F28600040014B1878704700BF43
:402780003FC2FF1F00EB40008300024A13445878704700BF44C2FF1F10B5044600EB40039800184B1844037913F0800F03D00A0C4FF4804302E00B0C4FF48042022C0AD0A8
:4027C000032C0FD0012C13D10021084601F02CFA0D4B18550CE00021084601F007FA0A4B185505E00021084601F0E2F9064B1855631EDBB2072B03D8FFF788FC034B185532
:4028000010BD00BF44C2FF1FECC1FF1FF8C1FF1F431EDBB2072B6FD82DE9F04104460E46154600EB40029300344A1344DB889BB2C3F500739D4209D900EB400293002F4A35
:402840001344DD88ADB2C5F50075ADB204EB440293002A4A1344DB7843EA15232849220188188B54EBB24370264B1B5DFF2B03D131462046FFF790FF04EB440293001F4A87
:40288000134400225A705EB355B31F4F385DFFF7D1FBDFF870801123FE22294618F80400FFF74EFC22010832184D2A4492B2B1B218F80400FFF758FC18F80410385DFFF735
:4028C000F7FB0121385DFFF799FB24012B5D43F002032B552B5D03F0FD032B55BDE8F08104EB44029300054A13445A79D2B22401074B1A55BDE8F081704700BF44C2FF1FD4
:40290000FC5F0040F8C1FF1FECC1FF1F70600040FE5F0040431EDBB2072B0BD8420002449300054A134400225A705A79D2B20001024B1A54704700BF44C2FF1FFE5F0040B3
:402940000246002001E0013080B2135C002BFAD1704700BF10B4FF2400230EE0094AD25C02EB42029100084A11448A7AD2B2824201D11C4602230133DBB2012BEED920462F
:4029800010BC70470CC2FF1F44C2FF1F10B5204C2079FFF7DFFF237813F0800F0ED06378DBB2212B2FD11B4B07221A80C0EBC000194A1044586000F0F3FA10BD144B5B7848
:4029C000DBB2202B02D0222B10D01EE0114A07231380C0EBC00310490B4453600F4A135C43F00103135400F003FB10BD084B9B780B4A22F81030094A135C43F0020313548A
:402A000000F08CF910BD002010BD002010BD00BF0060004028C2FF1FEC80FF1F04C2FF1F18C2FF1F10B500241F4B1C701F4B1C705C700AE01E4B185DC0B2431EDBB2072BB2
:402A400001D8FFF767FF0134E4B2012CF2D9194B1B7813F0FF0F1AD0154B1B7813F0FF0F17D0154B1B7813F0FF0F14D0114B1B78DBB2082B11D80E4B1B78DBB2082B0ED86F
:402A80000D4B1B78DBB2082B0BD8002010BD012010BD012010BD012010BD012010BD012010BD012010BD00BF9C81FF1F04C2FF1F10C2FF1F08C2FF1F0CC2FF1F2DE9F84314
:402AC0008046234B1B78234AD65CF6B2FFF738FF05460027344606EB460293001E4A13441B899BB29D4209D906EB460293001A4A1344B3F808901FFA89F900E0A9464A46AE
:402B000008EB07013046FFF783FEC9EB0505ADB245B906EB460293000F4A13441B899BB2994510D14F44BFB204EB440293000A4A13445B7813F0FF0FF6D025B900221146EE
:402B40003046FFF765FE002DC4D1BDE8F88300BF9C81FF1F08C2FF1F44C2FF1F08B5034B1B78034AD05CFFF70DFE08BD9C81FF1F08C2FF1FC37803F0030390F902000028B7
:402B80000FDA032B06D002F001030B48C15442F001020EE0C2F380030848C15442F0040207E0032B05D0C2F340030548C15442F002021046704700BF08C2FF1F0CC2FF1FB8
:402BC00010C2FF1F1D4B19781D4A13889BB20B449BB2138000220FE01A494B681B78DBB2194883544B6801334B600132D2B20B889BB2013B9BB20B80124B1B889BB20BB1A9
:402C0000072AE9D90D4B1B78DBB2082B00D05AB10E490B7883F080030B700F210C4B197002210C4B197004E0022309490B7009490B70094B1A70014B1A7070471CC2FF1FB3
:402C40001EC2FF1F28C2FF1F00600040B2C2FF1F3DC2FF1F20C2FF1F40C2FF1F0222074B1A708022064B1A700F22064B1A700023054A1370054A13700120704720C2FF1FB7
:402C8000B2C2FF1F3DC2FF1F1CC2FF1F40C2FF1F08B5FFF797FF08BD10B4194B197801F00F010239C9B2174A13889BB20B449BB21380002011E0144A5468144B1B5CDBB2C5
:402CC00023705368013353600130C0B20139C9B213889BB2013B9BB213800B4B1B889BB20BB10029E7D10A4B19700A4A137883F0800313700B22084B1A7010BC704700BFDE
:402D0000296000401EC2FF1F28C2FF1F0060004040C2FF1FB2C2FF1F3DC2FF1F0623064A1370064A13708022054B1A700022054B1A700120704700BF20C2FF1F3DC2FF1F5A
:402D4000B2C2FF1F40C2FF1F064B9B6843B1054B9A6810709A6804490988518000229A60704700BF28C2FF1F1EC2FF1F08B5134B1A78D2B21A701B78DBB213F0800F02D0FF
:402D80000F4A137008BD0220FFF7DEFF0D4B1B7803F06003202B05D0402B06D043B900F0E7FC06E000F070FF03E000F08BFE00E0002010B90322024B1A7008BD2860004019
:402DC0003DC2FF1F0060004008B5094B1978094A13889BB20B449BB213800022064B1A700120FFF7B1FF0322044B1A7008BD00BF1CC2FF1F1EC2FF1F20C2FF1F3DC2FF1FAD
:402E000008B50B4B1B78DBB2042B06D0062B07D0022B0BD1FFF7D8FF08BDFFF73DFF08BD0320FFF791FF0322024B1A7008BD00BF20C2FF1F3DC2FF1F08B50022044B1A70C2
:402E40000120FFF781FF0322024B1A7008BD00BF20C2FF1F3DC2FF1F08B50B4B1B7813F0FF0F07D0084A137843F0800307490B70002313700022064B1A700120FFF764FF15
:402E80000322044B1A7008BD3EC2FF1F0860004020C2FF1F3DC2FF1F08B5094B1B78DBB2042B06D0062B07D0022B07D1FFF7F0FE08BDFFF7C1FF08BDFFF7CEFF08BD00BFBE
:402EC00020C2FF1F08B5284B1B78DBB213F0100F48D013F0800F0CD003F00F03012B16D1FFF744FF214B1B7813F0800F11D1012312E013F0400F03D0FFF7CEFF01230BE009
:402F000013F0200F07D0FFF77BFF012304E0002302E0002300E0002323B3134B1B7813F0800F1FD1124B1B78124A12781343124A13701278D2B2934214D10C4B1B78DBB252
:402F4000094A127812F0800F07D1084B1B78DBB2054A1370137803F00F03044A1278D2B29342EAD108BD00BF286000403DC2FF1FB2C2FF1F40C2FF1F296000400022064BF3
:402F80001A80064B9B682BB1044A916800230B7092685380704700BF1EC2FF1F28C2FF1F08B50F4B1B889BB213B9FFF757FE15E002220C4B1A7000220B4B1A70FFF7DEFF2C
:402FC0000A4AD179937943EA0123054A128892B2934201D2024A1380FFF7F4FD012008BD28C2FF1F20C2FF1FB2C2FF1F0060004008B504220B4B1A7080220B4B1A70FFF7E0
:40300000BDFF0A4AD179937943EA0123084A128892B2934201D2064A13800B22054B1A70012008BD20C2FF1FB2C2FF1F0060004028C2FF1F3DC2FF1F0122094B1A700F3B8F
:403040009B7C084B1B7B03F00303934204D0054AD37B83F08003D3730122024B5A7370470B60004044C2FF1F02220A4B1A700F3B93F82230084B1B7E03F00303012B04D003
:40308000054AD37E83F08003D3760122024B5A76704700BF0B60004044C2FF1F04220C4B1A700F3B93F832300A4B93F8243003F00303012B06D0074A92F8273083F0800317
:4030C00082F827300122034B83F82520704700BF0B60004044C2FF1F704700BF08B5FFF725FB08BD70B4234B1C78E4B201233DE014F0010F37D01A4619011F48084481783D
:403100004078014011F0010F17D003EB4305A8001A4D2844007910F0800F0ED0164D1E01A85D00F0FE00A85503EB4305A800134D28444579EDB21248855511F0020F0FD069
:4031400002EB4205A8000D4D2844007910F0800F06D102EB4205A800084D2844002545701201084881540133DBB26408002CBFD170BC70479F6000407060004044C2FF1FE0
:40318000FE5F00407260004008B500F009FD08BD70B588B0054603AC174E0FCE0FC43368237035B322232B7003236B7001A8FFF737F8002402231AE008AA224412F81C2C0A
:4031C00008A901EB121111F8141CE954581C00212954981C02F00F0208AE324412F8142C2A54DA1CA9540134E4B20433DBB2212BE2D908B070BD00BF7C46000030B40123E5
:4032000041E0194623481A0184180C2585541F22627003EB430082001F480244527912F0FF0F13D003EB430082001B480244127912F0800F04D01801184A024495700AE0B5
:403240001801164A02440820907004E01801134A0244802090704800084482000E480244D488E4B208010B4901448C71D088C0F30720C871D088C0B20871D288C2F30722FE
:403280004A710133DBB2082BBBD9FF22044B1A7030BC70477060004044C2FF1FFC5F00400A600040074B1A78074B03EBC2035B681A7C824204D9C000103018444068704717
:4032C000002070471DC2FF1F90460000F8B5404B1B7813F0FF0F79D03D4B18780138C0B2FFF7E0FF047AC2683A4B1878C0B200236AE01178884264D13749095CC9B2557816
:40330000A9425ED1917801F07F01D67806F00306DFF8C8E04D000D44AF000EEB07054FF0000C85F803C092F802C085F804C092F803C00EF807C097882F8192F90250002DD0
:403340000DDA012E01D1072700E00D274E000E44B500224E35446F7101266E700CE0012E01D1052700E009274E000E44B5001B4E35446F7100266E70DFF868E00F010EEB94
:4033800007060125B57001FA05F529448D00134929440D89C5F307250EF807500D89EDB27570CE88F6B20E4D3D44AE71CE88C6F30726EE71CE88F6B22E71C988C1F30721AE
:4033C000697108320133DBB2A34292D3F8BD00BF3FC2FF1F34C2FF1FB0C2FF1F44C2FF1F70600040FC5F0040034B1A78034B03EBC2035868704700BF1DC2FF1F90460000BE
:4034000008B5084B18780138C0B2FFF74BFF30B142681279023200EBC203586808BD002008BD00BF3FC2FF1F2DE9F047002310E0724D5900CA189600AC190022AA55A270D7
:40344000E2702281A272627034462C4462710133DBB2082BECD940B90AE000226849CA546849CA540133DBB200E00023012BF4D9654B1B7813F0FF0F00F0BD80624B1878DD
:403480000138C0B2FFF70EFF80464368DB7913F0400F05D05D4A137843F00103137004E05A4A137803F0FE03137098F808704FF0000A01266FE0D8F80C50002467E0AB787B
:4034C00003F07F039E425FD1314606EB460083004A4803441B899BB2A888834206D206EB460E4FEA8E03454A134418812B784448C35CDBB26878834246D195F802C0DFF834
:40350000FCE04B000B4498000EEB000383F804C0EB780EF80030EB7803F0030395F90200002813DA012B02D14FF0070901E04FF00D09DFF8C8E04B0003EB010C4FEA8C009A
:40354000704480F805900121417012E0012B02D14FF0050901E04FF00909DFF8A0E04B0003EB010C4FEA8C00704480F8059000214170AB790A2B01D0022B05D15246314616
:403580002846FFF7F7FA824608350134E4B2BC4295D30136F6B2082E8DD9D8F80C0000220CE0837803F07F0310F8084B03EB43039900124B19448C720132D2B2BA42F0D355
:4035C000FFF71EFF124B1860002301210FE00B4D4A00501884002C44E380228992B213449BB203F0010213449BB20131C9B20829EDD9FFF703FEBDE8F08700BF44C2FF1F87
:40360000B0C2FF1F24C2FF1F3FC2FF1F41C2FF1F38C2FF1F08B5154B1B7903F07F035A1ED2B2072A20D8590019448A0010490A44917841F0010191700021D170517841F0D3
:4036400002015170127912F0800F05D01B01094A1A448D23937004E01B01064A1A4489239370FFF75BFB08BD002008BD0060004044C2FF1FFC5F0040274B1B7903F07F03E8
:403680005A1ED2B2072A44D810B5590019448A0022490A44917801F0FE0191700021D1701F4C1801215C01F07F012154517801F0FD015170127912F0800F13D003EB430116
:4036C0008A0016490A445278D2B2012A04D1224602440C23937019E01B01114A1A440D23937013E003EB43018A000C490A445278D2B2012A05D11B01094A1A4408239370C8
:4037000004E01B01064A1A4409239370FFF706FB10BD0020704700BF0060004044C2FF1FFC5F004010B50E4B1C79E4B20D4B18780138C0B2FFF7B6FD43681B799C4201D977
:40374000022C0AD8084A135DDBB208490B55044B9B78DBB21355012010BD002010BD00BF006000403FC2FF1FB0C2FF1F24C2FF1F10B59C4B1B78DBB200219B4A118013F08F
:40378000800F00F0AD80974A5278D2B20A2A00F27481DFE812F06900720172017201720172010B007201920072019A008D4BDB78DBB2012B09D1FFF717FE42688A4B5A6083
:4037C00012221A80FFF7ECFB10BD864BDB78DBB2022B13D1834B9878FFF764FD002800F04E814268804B5A605A68D1785A68927842EA01221A80FFF7D3FB10BD794BDB78DC
:40380000DBB2032B05D02CE00A7811440133DBB201E000237549734A9278D2B2934203D20A7812F0FF0FEFD16E4B9B7813F0FF0F0BD06C4B9B78DBB26D4A127C934204D14D
:403840006C4C2046FFF7A4FC21460B7813F0FF0F00F017810B78644A13805160FFF7A0FB10BD00F011FA10BD13F0030317D0022B40F009815C490B805A4B1B7903F07F03C1
:4038800003EB43039A005C4B1A449278D2B25B4B1A7000225A704B60FFF782FB10BD524902230B80564B1A78D2B2544B1A7000225A704B60FFF774FB10BD4B4B01221A8059
:4038C000504A5A60FFF76CFB10BD474A01231380444B1B794C490B445360FFF761FB10BD404A5278013A0A2A00F2CF80DFE812F04C00CD009800CD000B00CD00CD00CD006C
:403900001300CD003000374B9B78DBB23F4A1370FFF704FA10BD334B9B7803F0FF041BB1601EC0B2FFF7BEFC04B110B9002C40F0AE80344B1B78DBB29C4206D0314B1C7032
:403940000120334B1870FFF76FFDFFF7E7F910BDFFF7E8FE002800F09C80224A1379DBB21279D2B22B490A702B4AD25CD2B22649CB5CDBB29A4204D00122254B1A70FFF77C
:40398000A5FCFFF7CBF910BD03F00303012B17D04BB1022B7FD1134B9B7813F0FF0F7CD1FFF76AFE10BD0F4B9B78DBB2012B76D1134A137803F0FD031370FFF7AFF910BD2A
:4039C000084B1B79DBB2012B6BD8064B98781B79DBB21249CA5C22EA0002CA54FFF79EF910BD00BF0060004028C2FF1FF8460000DC470000B8C2FF1F44C2FF1FA081FF1F98
:403A000041C2FF1F3FC2FF1FB0C2FF1F3EC2FF1F3CC2FF1F34C2FF1F24C2FF1FB4C2FF1F03F00303012B17D04BB1022B3BD1224B9B7813F0FF0F38D1FFF7ECFD10BD1E4BE0
:403A40009B78DBB2012B32D11C4A137843F002031370FFF763F910BD174B1B79DBB2012B27D8154B98781B79DBB21549CA5C22EA0002CA54FFF752F910BD002010BD0020A2
:403A800010BD002010BD002010BD002010BD002010BD002010BD002010BD002010BD002010BD002010BD002010BD002010BD002010BD002010BD00BF0060004041C2FF1FB0
:403AC000B4C2FF1F044B1B7813F0800F01D0024B5B780020704700BF00600040024A137843F08003137070477B650040014B1870704700BF8B650040014B1878704700BFE4
:403B00006B650040014B1860704700BF28650040014B1868704700BF48650040014B1860704700BF08650040024B1B78024B1868704700BF086500404865004008B501E0FD
:403B4000FFF7E6FFFFF7D8FF10F0080FF8D108BD08B54FF0FF30FFF7D5FF4FF0FF30FFF7DDFF00F089F8064A137843F01003137000F086F8FFF7E2FF0020FFF7B7FF08BDD8
:403B80009B65004008B5054B1B7823B9FFF7E0FF0122024B1A70FFF7A1FF08BDA281FF1F024B1878C0F38010704700BF8F450040F0B583B016461F460B4C02252570002365
:403BC000019300930A4601462846FEF77DFA3A4631462078FEF752FA29462078FEF73CFA207803B0F0BD00BF0681FF1FF0B583B016461F460B4C01252570002301930093DA
:403C00000A4601462846FEF75FFA3A4631462078FEF734FA02212078FEF71EFA207803B0F0BD00BF0781FF1FF0B583B016461F460B4D00242C700194009423460A46014680
:403C40002046FEF741FA3A4631462878FEF716FA02212878FEF700FA287803B0F0BD00BF0881FF1F000000000230800803D000BF01380046FCD17047EFF3108072B670475A
:403C800080F31088704700BF08B5144B1B7803F00303012B02D0022B04D00FE00F4B1B79DBB20CE00D4B1B7903F07F0303EB43039A000B4B1A44937ADBB200E00023022BD9
:403CC00007D8084A1268D35C022B04D1FEF75EFE08BD002008BD002008BD00BF0060004044C2FF1F38C2FF1F014B1868704700BF6C81FF1F0E4B70B51E460E4C0025E41AC1
:403D0000A410A54204D056F8253098470135F8E700F088FD084B094C1E46E41AA4100025A54204D056F8253098470135F8E770BD30480000304800003048000038480000BE
:403D400010B5431E0A44914204D011F8014B03F8014FF8E710BD03460244934202D003F8011BFAE7704700000EB400B54FF402719CB0ADF814106FF00041049107914FF6A3
:403D8000FF711DAB02900690084853F8042BADF81610006802A9019300F064F8029B00221A701CB05DF804EB03B070476C81FF1F2DE9F0478E6882469E420C46914698465B
:403DC0003ED88A8912F4906F3AD02568096902236F1A656905EB450595FBF3F57B1C43449D4238BF1D4653050FD5294600F040FB064698B13A462169FFF7A2FFA38923F4B8
:403E0000906343F08003A38113E02A4600F08EFB064670B92169504600F0DEFA0C23CAF80030A3894FF0FF3043F04003A381BDE8F08726613E44266046466561ED1BA5601D
:403E4000464528BF464649463246206800F0A8FAA36800209B1BA36023681E442660BDE8F08700002DE9F04F9DB003938B8980461C060D4616460DD50B695BB9402100F012
:403E8000F7FA2860286118B90C23C8F80030CDE040236B610023099320238DF82930DFF89CB130238DF82A3037463C4614F8013B1BB9B7EB060910D003E0252BF9D02746E9
:403EC000F3E74B46324629464046FFF771FF013000F0A780099B4B4409933B78002B00F0A08000234FF0FF3204930793059206938DF853301A930126052221784E4800F069
:403F000041FA671C049B38B14B4A3C46801A06FA00F018430490EFE7D90644BF20228DF853201A0744BF2B228DF8532022782A2A03D0079A00210A200BE0039A111D126873
:403F40000391002A10DA524243F00200079204900BE027463B780134303B092B03D800FB02320121F5E701B107923B782E2B1ED17B782A2B0AD1039B02371A1D1B6803922D
:403F8000002BB8BF4FF0FF33059310E0002319460593781C0A2407463A780130303A092A03D804FB01210123F5E703B1059103223978224800F0E6F940B14023CBEB00005E
:403FC00003FA00F0049B013718430490397806221B487E1C8DF8281000F0D4F988B1194B33B9039B073323F007030833039314E003AB00932A46144B04A94046AFF3008016
:4040000007E003AB00932A460F4B04A9404600F093F8B0F1FF3F824603D0099B5344099342E7AB895B0601D4099801E04FF0FF301DB0BDE8F08F00BFF0470000F6470000E8
:40404000FA47000000000000B13D00002DE9F04791461F460A698B6806469342B8BF1346C9F8003091F843200C46DDF8208012B10133C9F800302368990642BFD9F8003079
:404080000233C9F80030256815F0060510D104F1190A07E00123524639463046C04701301AD00135E368D9F800209B1A9D42F1DB94F843302268003318BF012392060FD585
:4040C000E118302081F843005A1C94F845102244023382F8431003E04FF0FF30BDE8F08704F1430239463046C0470130F4D02268D9F80050E36802F00602042A08BF5D1B07
:404100002269A3680CBF25EAE57500259342C4BF9B1AED184FF000091A344D4509D00123224639463046C0470130D5D009F10109F3E70020BDE8F0872DE9F04317460A7ED7
:4041400085B06E2A984606460C460C9B01F1430E00F0AE8011D8632A22D009D8002A00F0BB80582A40F0CA8081F84520834955E0642A1ED0692A1CD0C0E0732A00F0B0801D
:4041800009D86F2A2ED0702A40F0B8800A6842F020020A603EE0752A24D0782A3AD0ADE01A6801F14205111D1960136884F84230A8E021681A6811F0800F02D0111D196004
:4041C00008E011F0400F02F10401196002D0B2F9003000E01368002B3CDA2D225B4284F8432037E021681A6811F0800F02D0111D196007E011F0400F02F10401196001D05E
:40420000138800E01368227E5C496F2A14BF0A2208221BE078225A4984F845202268186812F0800F00F104051D6003D1550601D5038800E00368D00744BF42F020022260CB
:404240001BB9226822F0200222601022002084F8430001E049490A226568002DA56008DB206820F0040020602BB9002D7DD175460CE0002B79D07546B3FBF2F002FB103377
:40428000CB5C05F8013D03460028F5D1082A0BD12368DA0708D5236962689A42DEBF302305F8013C05F1FF35C5EB0E0323612EE008681A6810F0800F496903D0101D18608A
:4042C000136808E010F0400F02F104001860136801D0198000E0196000232361754616E01A68111D1960156800216268284600F049F808B1401B6060636804E004F1420518
:4043000084F8422001232361002384F84330CDF800803B4603AA21463046FFF797FE013002D14FF0FF3026E023692A4639463046C0470130F5D023689B0710D5002504F178
:40434000190907E001234A4639463046C0470130E7D00135E368039A9B1A9D42F2DBE068039B9842B8BF184605E00B7804F1420584F842308AE705B0BDE8F083014800006F
:404380001248000010B5C9B202449042034605D01C7801308C42F8D1184610BD002010BD884210B501EB020301D8421E0BE09842FBD28118D21AD34204D013F8014D01F8AE
:4043C000014DF8E710BD994204D011F8014B02F8014FF8E710BD000038B50546002944D051F8043C0C1F002BB8BFE41800F0D4F81E4A1368114613B96360146030E0A34214
:404400000DD92268A018834201BF18685B681218226063600C6023E0A24203D813465A68002AF9D118681918A1420BD12168014458188242196013D1106852680144196021
:404440005A600DE002D90C232B6009E021686018824201BF106852680918216062605C602846BDE8384000F098B838BDA881FF1F70B5CD1C25F0030508350C2D38BF0C2570
:40448000002D064601DBA94202D90C23336046E000F082F8234B1C681A462146A1B10B685B1B0ED40B2B03D90B60CC18CD501EE08C420BBF63684B681360636018BF0C46C8
:4044C00015E00C464968E9E7174C23681BB9304600F052F820602946304600F04DF8431C18D0C41C24F00304A0420DD12560304600F053F804F10B00231D20F00700C31A7C
:404500000ED05A42E25070BD211A304600F034F80130EBD10C233360304600F03EF8002070BD00BFA881FF1FA481FF1FF8B5074615460E4621B91146BDE8F840FFF798BFF0
:404540001AB9FFF749FF2846F8BD00F027F885420ED929463846FFF78BFF044650B131462A46FFF7EDFB31463846FFF735FF01E03046F8BD2046F8BD38B5064C00230546DA
:4045800008462360FDF7ACFC431C02D1236803B12B6038BDDCC2FF1F7047704751F8040C0028BEBF091851F8043CC018043870470000000053442043617264204D6F756E10
:4045C00074696E670D0A000053442043617264204D6F756E74204661696C65642E0D0A0053442043617264204D6F756E7465640D0A00000042656E63682053746172740D85
:404600000A000000746573742E62696E0000000025642C25756D732C25756B427974652F730D0A00222A2B2C3A3B3C3D3E3F5B5D7C7F0000464154004641543332000000C0
:4046400000510040100020510040500000000140800800090140000700140140000800400140000A004C0140000200500140200080080140C8020048800000003031323335
:4046800034353637383941424344454600000000010000009846000001000000DC470000000000000000000001000000B0460000010000009847000003000000DC4600001F
:4046C0000000000000000000000000000000000000000000D8460000020A000000008103080002000100820240000A000100030240000A0002030000040309042C03430058
:404700007900700072006500730073002000530065006D00690063006F006E0064007500630074006F00720010035500530042005500410052005400380343004400430016
:40474000200043006F006D006D0075006E00690063006100740069006F006E00200049006E00740065007200660061006300650026034300440043002000440061007400E6
:404780006100200049006E0074006500720066006100630065000000090243000201018032090400000102020103052400100104240202052406000105240100010705817F
:4047C0000308000A09040100020A0000040705820240000007050302400000001201000202000008B40432F20100010280014300232D302B2000686C4C00656667454647B3
:40480000003031323334353637383941424344454600303132333435363738396162636465660000F8B500BFF8BC08BC9E4670474D0000005D1F0000F8B500BFF8BC08BC48
:404840009E4670472900000058480000C880FF1FA8000000704100000000000001000000E0C2FF1F7F800000070000000000007D00FA0000400000000090D00300C2010071
:4048800000000800C201000000080000A1200000000002000000FFFFFF0000000000000000000000000000000000000000000000000000000000000000000000EE47000030
:4048C0000000000000000000000000000000000000000000000000000000000000000000000000000000000000000000000000000000000000000000000000000C81FF1F0D
:404900000000000000000000000000000000000000000000000000000000000000000000000000000000000000000000000000000000000000000000000000000000000077
:404940000000000000000000000000000000000000000000000000000000000000000000000000000000000000000000000000000000000000000000000000000000000037
:4049800000000000000000000000000000000000000000000000000000000000000000000000000000000000000000000000000000000000000000000000000000000000F7
:4049C00000000000000000000000000000000000000000000000000000000000000000000000000000000000000000000000000000000000000000000000000000000000B7
:020000040003F7
:0200000480007A
:40000000014500400252004001640040016500400308014032090140021701404D180140301901403D1A01401D1B0140034001400341014003420140034301400647014054
:40004000044801400A4C0140014D014004500140015101407E0209187C40890F8B0D54095B045F01000A016009080A8210A0120A181119201A402046228A282029012A407E
:400080003289384039143A0240414104480149084A085040510852515C015D085E405F2062206402682469556A027080720380128C208D60C00FC20DC40FCA0BCC0BCE0F3F
:4000C000D00BD20CD6F0D814EA02EE0A401549FF4AFF4BFF4F0150185A045D015F016040624064406540668068806A806C806E80801182268408861388E88A048C6C8E802E
:400100008F20900191139206930C941095099668973699029B0D9CEC9D059F3AA0ECA4ECA817AA40AE80B007B130B278B480B50FBA0ABB20BE10C015C9FFCAFFCBFFCD83B7
:40014000CE03CF01D018D440D804D904DA04DB04DD01DF01E040E240E440E540E680E880EA80EC80EE80000401500280054006010A9110201101120919011A901B102040A7
:40018000222032AA38404340474049804D804F806140621063208504900491519201950896809A119D01A020A28AA620A840AB20C00FC20DC40FCC0FCE08D018D218D80ED7
:4001C000E208EA02EE0A080E2005220A28042A092C032E04320F3808405149FF4AFF4BFF4D834E034F01501858045A045D015F016040624064406540668068806A806C809D
:400200006E809201AE01B001BE01C015C5ECC602C807C9FFCAFFCBFFCD83CE03CF01D018D280D401D804DA04DB04DD11DF01E040E240E440E540E680E880EA80EC80EE80A2
:4002400000100F80128A174018101E804180474048014D044F81558057405D045E805F01740177409F40A28AA740A840C002C210C48BD018D218D6D0EC0433813640CC70B2
:400280009F01A640A7809F01A640A7809F01A640A78008080B040F408F40C20EE008AE40AF81EA40EE500C045B40630884049B40AC08AF44C204D401D802AB0400010C016A
:4002C00010031C03002A00000A1A1000801804020102001804338044041A0000609C00030000000084C1003884180000841800025600090007823800081302E07F13800FA8
:40030000200000880000450056041000030EFCDB3DFFFFFF2200F008040000000000022404040404000000010000C00040011011C001001140014001000000000000000079
:40034000000000000000000000303000000000004000000000000000C0000000201F1F001800000000000000000000000000000000000000000000000000000000000000A7
:40038000000000000000000000000000000000000000000000000000000000000000000000000000000000000000000000000000000000000000000000000000000000003D
:4003C00000000000000000000000000000000000000000000000000000000000000000000000000000000000000000000000000000000000000000000000000000000000FD
:4004000000000000000000000000000000000000000000000000000000000000000000000000000000000000000000000000000000000000000000000000000000000000BC
:40044000000000000000000000000000000000000000000000000000000000000000000000000000000000000000000000000000000000000000000000000000000000007C
:0200000490006A
:0400000000004005B7
:0200000490105A
:04000000BC90ACAF55
:0200000490303A
:0200000066ADEB
:0200000490402A
:4000000000000000000000000000000000000000000000000000000000000000000000000000000000000000000000000000000000000000000000000000000000000000C0
:400040000000000000000000000000000000000000000000000000000000000000000000000000000000000000000000000000000000000000000000000000000000000080
:400080000000000000000000000000000000000000000000000000000000000000000000000000000000000000000000000000000000000000000000000000000000000040
:4000C0000000000000000000000000000000000000000000000000000000000000000000000000000000000000000000000000000000000000000000000000000000000000
:0200000490501A
:0C00000000012E12706900012E2FD7168F
:00000001FF