:400000000080002011000000A91D0000A91D000008B5044B1A6803F53F5302331A6001F0CBFE00BFFA46004010B5054C237833B9044B13B10448AFF300800123237010BD21
:400040004881FF1F0000000090200000084B10B51BB108490848AFF300800848036803B910BD074B002BFBD0BDE81040184700BF000000004C81FF1F90200000C880FF1FA2
:400080000000000000B5ADF2644D62B6012001F08FFF01F073FF4FF47A7001F0E7FE012001F09AFF012213498BA801F0E7FA18B1002001F091FFFEE70A220F49684601F07C
:4000C00007FB18B1002001F087FFFEE701F07CFFC043C0B201F06CFF6946084801F042FD8A90684601F0F0FC4FF4FA6001F0BEFEECE700BF9C20000094200000A02000009C
:4001000008B5012001F048FF0A2001F0AFFE08BD08B501F0EFFE01F0E1FE10F0010FFAD001F0F4FE08BD00BF38B50546002409E0FF20FFF7EDFFFF2808D04FF47A7001F00D
:40014000ABFE0134AC42F3D3002038BD012038BD08B5012001F020FFFF20FFF7D9FF08BD10B5002001F018FFFF20FFF7D1FF4FF4FA70FFF7D9FF18B90446FFF7E9FF00E0FC
:400180000124204610BD00BF38B504460D4610F0800F07D000F07F0400213720FFF7F4FF012833D80C2C04D0FFF7D2FFFFF7D8FF58B344F04000FFF7ABFF280EFFF7A8FF9E
:4001C000C5F30740FFF7A4FFC5F30720FFF7A0FFE8B2FFF79DFF0CB1012000E09520082C00D18720FFF794FF0C2C02D1FF20FFF78FFF0A24FF20FFF78BFF10F0800F05D040
:40020000631E13F0FF04F5D138BDFF2038BD00BF70B506460D46002404E0FF20FFF778FF30550134AC42F8D370BD00BFF8B506460F4600240AE0FF20FFF76AFF0546FF28A6
:4002400006D14FF47A7001F027FE0134C72CF2D9FE2D0BD139463046FFF7DAFFFF20FFF757FFFF20FFF754FF0120F8BD0020F8BD70B506460D46002403E0305DFFF748FF93
:400280000134AC42F9D370BD38B505460C464FF4FA70FFF749FF0346D8B12046FFF738FFFD2C13D04FF400712846FFF7E1FFFF20FFF72EFFFF20FFF72BFFFF20FFF728FF87
:4002C00000F01F00052803D0002302E0012300E00123184638BD00BF18B9034B1878C0B270470120704700BFCC80FF1F002840F0A58070B582B0FFF703FF524B1B7813F0D8
:40030000020F09D04F4B1878C0B299E0FF20FFF7FFFE013CE4B200E00A24002CF6D100210846FFF731FF01286BD14FF4D5710820FFF72AFF012842D109E0FF20FFF7E8FEEE
:4003400002AB2B4403F8040C0135EDB200E02546032DF2D99DF80630012B54D19DF80730AA2B0DD0002557E04FF08041A920FFF70BFF48B14FF47A7001F08EFD013500E0C4
:400380000025B5F57A7FEFD3002D3ED000213A20FFF7FAFE50B100253EE0FF20FFF7B8FE02AB234403F8040C0134E4B2032CF4D99DF8043013F0400F29D00C252CE00021A8
:4003C000A920FFF7E1FE012802D80225A92601E001252E46002409E000213046FFF7D4FE38B14FF47A7001F057FD0134B4F57A7FF2D374B14FF400711020FFF7C5FE50B9BD
:400400000AE0002508E0002506E0002504E0042502E0002500E000250B4B1D70FFF798FE2DB1084A137803F0FE03137002E00122044B1A70034B1878C0B201E001207047F4
:4004400002B070BDCC80FF1F6481FF1FB8BB38B50D461C46ABB31D4B1B7813F0010F32D11B4B1B7813F0080F00D15202012C0BD111461120FFF788FED8B94FF400712846B4
:40048000FFF7D4FEA0B914E011461220FFF77CFE78B94FF400712846FFF7C8FE18B105F50075013CF5D100210C20FFF76DFE00E00024FFF74DFE201C18BF012038BD0420A4
:4004C0007047042038BD032038BD00BFCC80FF1F6481FF1F002846D170B50D4616461C46002B42D0244B1B7813F0010F3FD1224B1B7813F0040F3CD1204B1B7813F0080FD6
:4005000000D15602012C0AD131461820FFF73CFE18BBFE212846FFF7B7FED8B91DE013F0060F03D021469720FFF72EFE31461920FFF72AFE88B9FC212846FFF7A5FE18B1EB
:4005400005F50075013CF6D1FD210020FFF79CFE10B102E0002400E00124FFF7F9FD201C18BF012070BD04207047042070BD032070BD022070BD00BFCC80FF1F6481FF1F2A
:40058000002840F00D8103468848007810F0010F40F0088130B585B018461446042900F2E080DFE801F0030ADE52AD00FFF7D8FD002840F0D8800124EEE000210920FFF75A
:4005C000E3FD002840F0D18010216846FFF72EFE002800F0CC809DF800309B09012B10D19DF809309DF8082003EB02229DF807301B0403F47C13134401339B0223600024BA
:40060000CAE09DF805209DF80A109DF809305B0002F00F0202EBD11203F0060313440233DBB29DF808109DF80720920002EB91119DF80620920202F440620A440132093B60
:4006400002FA03F323600024A6E0594B1B7813F0040F21D000218D20FFF796FD002840F08880FF20FFF754FD10216846FFF7DEFD38B9012490E0FF20FFF74AFD013DEDB291
:4006800000E03025002DF6D19DF80A301A0910239340236000247FE000210920FFF774FD002868D110216846FFF7C0FD002864D03F4B1B7813F0020F11D09DF80A305B00D7
:4006C00003F07E039DF80B2003EBD21301339DF80D209209013A9340236000245CE09DF80A30C3F384019DF80B30DA0002F0180202EB5312531C01FB0333236000244BE0EC
:400700002B4A127812F0060F39D06A460B21FFF737FFB0BB9DF800309B0904D19DF80A3013F0400F2FD021686468214B1B7813F0080F01D1490264022020FFF725FD20BBA5
:4007400021462120FFF720FD08BB00212620FFF71BFDF0B947F23050FFF7E6FCD8B901241AE0042418E0002416E0012414E0012412E0012410E001240EE001240CE00124D4
:400780000AE0012408E0012406E0012404E0012402E0012400E00024FFF7DAFC204603E0042070470320704705B030BDCC80FF1F6481FF1F4278007840EA0220704700BF31
:4007C000C278837843EA0222437843EA0223007840EA0320704700BF0170090A417070470170C1F307234370C1F307438370090EC170704713462AB10A78027001300131C2
:40080000013BF9D1704700BF01700130013AFBD1704700BF30B4451C037808781B1A013A04D04C1C28462146002BF4D0184630BC704700BF00E0013003780BB18B42FAD1CD
:4008400018467047802807D99F2807D9DF2807D9FC2807D900207047002070470120704700207047012070473F2808D97E2808D9802801D3FC2806D938B1002070470020E6
:40088000704701207047012070470120704700BF02398369023B994204D2C36A408900FB013070470020704770B506460D4601F11A00FFF77FFF04463378032B05D105F142
:4008C0001400FFF777FF44EA004070BD70B506460C46154691B204F11A00FFF77DFF3378032B04D1290C04F11400FFF775FF70BD2DE9F04F83B001908B460D6800F12009FF
:400900000B2220214846FFF77FFF2B782E2B1FD100210B465A1CEB5C2E2B06D1022A04D809F8013013460131F4E72F2B03D05C2B01D0202B6ED81544CBF80050202B01D8B6
:40094000242300E02023019A82F82B3000206EE00026B0464FF0080A08F1010715F80840202C40D92F2C03D05C2C07D100E00137EB5D2F2BFBD05C2BF9D034E02E2C01D065
:40098000B24509D8BAF10B0F46D02E2C46D1B84608264FF00B0ADFE72046FFF753FF88B108F10208EF5D3846FFF75EFFC0B30AF1FF339E4236D2731C09F8064009F80370F4
:4009C0000236C9E721461B48FFF734FF60BBA4F16103DBB2192B01D8203CE4B209F806400136B846B8E73D44CBF80050F6B1019B93F82030E52B03D10523019A82F820302E
:400A0000202C01D8042300E00023019A82F82B3000200CE006200AE0062008E0062006E0062004E0062002E0062000E0062003B0BDE8F08FB020000010B40468FCB1224697
:400A4000511C1378202B02D90A463A2BF8D13A2B12D12378A3F13002D2B2092A04D80234A14203D1303B02E0012300E00123002B08DC0160184607E0044B187804E04FF085
:400A8000FF3001E04FF0FF3010BC70476881FF1F38B504460D464C220021FFF7B5FE256038BD00BF38B50D46044678B103687BB11A787AB18188DA8891420DD15878FFF74A
:400AC0000BFC10F0010F09D0092008E0092006E0092004E0092002E0092000E0002008B9236800E000232B6038BD00BF38B5C378E3B1044600F134050123026B294640782F
:400B0000FFF7E8FCA0B90023E370216B636ACB1AE26993420ED2A378022B0DD101230A4429466078FFF7D6FC002038BD002038BD012038BD002038BD002038BD70B5036B2A
:400B40008B4212D004460D46FFF7D0FF064668B901232A4604F134016078FFF777FC10B101264FF0FF35256300E00026304670BD10B504460023C3704FF0FF330363FFF73A
:400B8000DDFFF0B904F23220FFF714FE4AF65523984218D194F83430E92B03D0EB2B01D0E82B12D103220C4904F16A00FFF732FE68B10522094904F18600FFF72BFE40B90D
:400BC00010BD042010BD032010BD022010BD002010BD022010BD00BFC0200000C420000070B584B006460D460021FFF7C1FF022812D029D845B300240FE006F134002301C3
:400C000003F5E3731844FFF7DBFD04AB03EB840343F8100C013400E00024032CEDD90DB16C1E00E0002404AB03EB840353F8101C19B13046FFF79CFF00E0032025B90128D1
:400C400002D90134032CEED904B070BD2DE9F0470E46174600230B60FFF7EEFE051EC0F20E81A64B03EB85035C68002C00F00A81346007F0FE0723787BB16078FFF72CFB9D
:400C800010F0010F09D1002F00F0FF8010F0040F40F0FE800020BDE8F08700232370E8B26070FFF723FB10F0010F40F0F4801FB110F0040F40F0F28000212046FFF790FF36
:400CC000042800F0EE80012800F2EE80266B04F13F00FFF76FFDB0F5007F40F0E88004F14A00FFF767FD804620B904F15800FFF767FD8046C4F81C8094F8449084F8029093
:400D000009F1FF33DBB2012B00F2D48008FB09F994F841506581002D00F0CF806B1E1D4240F0CE8004F14500FFF744FD8246208110F00F0F40F0C78004F14700FFF73AFDD6
:400D4000074620B904F15400FFF73AFD074604F14200FFF72FFD0346002800F0B78009EB000202EB1A129742C0F0B380BF1AB7FBF5F5002D00F0B08061498D4201D9002792
:400D800000E003274FF6F5718D4200D8022740F6F5718D4200D80127002F00F0A0800235A5612662334463623244E262032F11D104F15E00FFF7FEFC002840F09380BAF1DC
:400DC000000F40F0928004F16000FFF7F9FCA062AD000FE0BAF1000F00F08A804B44A362022F01D16D0005E005EB450305F0010505EB530505F2FF15B8EB552F7BD34FF0ED
:400E0000FF332361E36080232371032F2CD104F16400FFF7CFFC012826D1711C2046FFF78DFE08BB0023237104F23220FFF7C2FC4AF65523984217D104F13400FFF7C0FCDA
:400E4000304B984210D104F50670FFF7B9FC2E4B984209D104F50770FFF7B2FC206104F50870FFF7ADFCE0602770244A138901339BB21381E38000206061BDE8F0870B20CF
:400E8000BDE8F0870C20BDE8F0870020BDE8F0870A20BDE8F0870320BDE8F0870A20BDE8F0870120BDE8F0870D20BDE8F0870D20BDE8F0870D20BDE8F0870D20BDE8F08766
:400EC0000D20BDE8F0870D20BDE8F0870D20BDE8F0870D20BDE8F0870D20BDE8F0870D20BDE8F0870D20BDE8F0870D20BDE8F0870D20BDE8F0870D20BDE8F0876881FF1F11
:400F0000F5FFFF0F52526141727241612DE9F047012975D98369994274D217460C4606460378022B3ED0032B4FD0012B6CD101EB5108416A01EB5821FFF700FE05460028EE
:400F400063D106F1340A08F10109C8F3080814F0010407D01AF8083003F00F0343EA0713DBB200E0FBB20AF808300123F370716A01EB59213046FFF7E1FD0546002844D1D6
:400F8000C9F3080914B1C7F3071206E01AF8093023F00F03C7F303221A430AF809200123F37032E0416A01EB1421FFF7C7FD054658BB06F13400630003F4FF73B9B21844D4
:400FC000FFF70AFC0123F3701FE0416A01EBD411FFF7B4FD0546C0B927F0704706F13403A10001F4FE715C182046FFF7E9FB00F0704139432046FFF7F3FB0123F37004E001
:40100000022502E0022500E002252846BDE8F087F8B50668012953D9B369994252D20C463378022B2AD0032B38D0012B4CD101EB5105716A01EB55213046FFF77FFD002831
:4010400044D16F1CC5F30805354495F83450716A01EB57213046FFF771FD002839D1C7F30803334493F8340045EA002014F0010F01D00009F8BDC0F30B00F8BD716A01EB0F
:4010800014213046FFF75AFD30BB06F13400610001F4FF710844FFF78DFBF8BD716A01EBD4113046FFF74AFDC8B906F13403A10001F4FE701844FFF783FB20F07040F8BD86
:4010C0000120F8BD0120F8BD0120F8BD4FF0FF30F8BD4FF0FF30F8BD4FF0FF30F8BD4FF0FF30F8BD2DE9F0410768B1F5001F3DD206460C4611F01F0F3BD1316185681DB92A
:401100003B78022B00D9BD6A35B93B89B3EB541F32D9BB6AB3611AE0B7F80A804FEA48280EE029463046FFF773FF0546B0F1FF3F25D0012826D9BB69984226D2C8EB0404B9
:401140004445EED229463846FFF7A2FBB0617561B369EBB103EB5423B36107F13403C4F308042344F3610020BDE8F0810220BDE8F0810220BDE8F0810220BDE8F0810120E2
:40118000BDE8F0810220BDE8F0810220BDE8F0810220BDE8F08100BF2DE9F04107460668884629B9F5687DB1B3699D420ED20EE0FFF72EFF012869D9B0F1FF3F74D0B369DF
:4011C000984271D3454602E0012500E001253069002869D0454516D16C1CB3699C4200D3022421463846FFF713FF01285CD0B0F1FF3F59D068B1F368012B06D9B269934299
:4012000005D3002405E0002403E0002401E01D460024A4B92C460134B3699C4202D3012D37D9022421463846FFF7F2FE38B1012832D0B0F1FF3F31D0AC42ECD130E04FF04A
:40124000FF3221463046FFF761FE034640B9B8F1000F05D0224641463046FFF757FE034673B9F4603269B369023B9A4201D8013A3261337943F0010333712046BDE8F08149
:40128000012B10D14FF0FF30BDE8F0810120BDE8F0810020BDE8F081BDE8F081BDE8F0810020BDE8F0810120BDE8F081F8B50E46046801292CD907461146A3699E4229D270
:4012C0002AB14FF0FF322046FFF720FE20BB31463846FFF79DFE0546F8B101281FD0B0F1FF3F1ED0002231462046FFF70FFED0B92369A269911E8B4205D201332361237926
:4013000043F0010323712E469542E0D30020F8BD0220F8BD0220F8BDF8BD0020F8BD0220F8BD0120F8BDF8BDF8B505460C46FFF7DDFB00BB21462846FFF7AAFA074628635B
:4013400005F134064FF4007200213046FFF75CFA002400E001346B899C4207D20123E21931466878FFF7B6F80028F3D06889001B18BF0120F8BD0120F8BD00BF2DE9F8431D
:40138000066805692035B5F5001F01D3002383618369002B48D088460446C5F30807002F3BD101338361416941B93389B3EB551F33D8002383610420BDE8F8837389013BF7
:4013C00013EA552329D1FFF723FE814601282ED9B0F1FF3F2ED0B369984217D3B8F1000F04D10023A3610420BDE8F88361692046FFF7D2FE814600B3012821D0B0F1FF3F52
:4014000021D001463046FFF78FFFF8B9C4F8149049463046FFF73CFAA061256134363E44E6610020BDE8F8830420BDE8F8830220BDE8F8830120BDE8F8830720BDE8F88330
:401440000220BDE8F8830120BDE8F8830120BDE8F88300BF70B5044606680021FFF742FEE8B9A1693046FFF769FB0546C0B9E0690378B3B1C37A03F03F03A371C37A13F088
:40148000080F05D10B2204F12001FFF7C3F950B100212046FFF772FF0028E2D070BD70BD70BD042070BD284670BD00BF70B582B00446019105680B782F2B06D05C2B04D0A1
:4014C0006B69836009E001330193019B1A782F2AF9D05C2AF7D00023A360019B1B781F2B08D8802384F82B3000212046FFF7FAFD064635E001A92046FFF7FAF9064678BBA1
:401500002046FFF7A7FF94F82B3080B1042820D113F0200F06D013F0040FEBD0802384F82B301DE013F0040F15D0064618E013F0040F12D1A37913F0100F10D005F13401A3
:401540002369C3F3080319442846FFF7ADF9A060D0E7064604E0052602E0064600E00526304602B070BD00BFF8B504460F4606680021FFF7B7FD0246B8B90025A169304675
:40158000FFF7DCFA024680B9E3691B78E52B00D01BB90135BD4201D107E0002501212046FFF7ECFE02460028E8D0042A00D107221046F8BD70B5044606680121FFF7D4FFAD
:4015C000054690B9A1693046FFF7B8FA054660B920220021E069FFF717F90B2204F12001E069FFF707F90123F370284670BD00BF70B50446FFF77AFA0546002837D12378C7
:40160000032B2DD12379012B2AD104F134064FF4007200213046FFF7F7F84AF6552104F23220FFF7D9F813493046FFF7D9F8124904F50670FFF7D4F8216904F50770FFF781
:40164000CFF8E16804F50870FFF7CAF8226A01322263012331466078FEF73CFF00232371002211466078FEF78BFF00B10125284670BD00BF525261417272416110B584B0CD
:4016800001900091144604A840F8041DFFF7D4F9002816DB0D4B03EB80035B680BB100221A70019B0BB100221A70084B03EB8000019B43603CB1002201A96846FFF7C6FAB8
:4016C00002E00B2000E0002004B010BD6881FF1F2DE9F0418EB00191002800F0D8800546164602F03F073A4602A901A8FFF7AEFA0446002840F0C680029B0393019903A81D
:40170000FFF7D4FE044620B99DF93730002B00DA062416F01C0F4BD044B1042C03D103A8FFF748FF044647F008070BE09DF8123013F0110F03D116F0040F02D102E0072423
:4017400000E00824002C43D117F0080F40D00A9E31460298FFF7A8F88046504906F10E00FFF73EF820220A9BDA7200220A990298FFF7ACF800210A981C30FFF731F8012293
:40178000029BDA70B8F1000F22D0029B1E6B0022414603A8FFF78AFD0446C8B931460298FFF7CCF9044608F1FF33029AD3600FE074B99DF8123013F0100F06D116F0020FC3
:4017C00006D013F0010F02D102E0042400E007244CB917F0080F01D047F04007029B1B6B2B620A9B6B62002C4CD1029EDDF8288041463046FFF758F8A86008F11C00FEF7C9
:40180000DFFFE8602E60F388AB802F7400216974E961696105F128084FF400724046FEF7F3FF17F0200F2DD0EE685EB36E61029B5F897F02A9680BE02846FFF7E9FB014657
:40184000012800D80224B1F1FF3F00D10124F61B0CB9BE42F0D8A961A4B9C6F308038BB1029F3846FFF714F848B100EB5622EA61012341467878FEF7E9FD10B902E0022457
:4018800000E001242CB100232B60204602E0092000E020460EB0BDE8F08100BF0000214E2DE9F04F85B00446884616461F4600233B60019003A9FFF7F5F8002840F0C18005
:4018C000607C002840F0BF80237C13F0020F00F0B9806369F342C0F0AB80DE43A8E06369C3F30802002A40F08380039AB2F80A9009F1FF3919EA53291DD133B9A06840B9BE
:4019000000210198FFF748FC03E0A1690198FFF743FC002800F08F80012802D10220607491E0B0F1FF3F02D1012060748BE0A061A36803B9A06094F91030002B0FDA01238F
:40194000E26904F1280103984078FEF7C3FD10B10120607477E0237C03F07F032374DDF80CB0A1695846FEF793FF824610B90220607468E0CA44750A25D009EB0503BBF87E
:401980000A20934201D9C9EB02052B46524641469BF80100FEF79EFD10B10120607452E0E169CAEB01018D420BD94FF4007208EB412104F12800FEF71DFF237C03F07F03F7
:4019C00023746D0227E0E3699A450FD06269E3689A420BD20123524604F128019BF80100FEF734FD10B1012060742CE0C4F81CA06369C3F30803C3F50075AE4200D235463C
:401A000004F128002A4641461844FEF7F3FE237C63F07F032374761B3B682B443B60A84463691D446561E3689D4238BF1D46E560002E7FF454AF237C43F0400323740020EF
:401A400001E000E0072005B0BDE8F08F4368002B1BDB70B582B0044686685D1C034419733B2D0DDD01AB2A4600F10C010068FFF717FF019B9D4201D1002501E04FF0FF3558
:401A800065600136A66002B070BD70474268002A0FDB10B582B0044601AB00F10C010068FFF7FEFE40B96268019B9A4207D1A06807E04FF0FF3070474FF0FF3001E04FF0D6
:401AC000FF3002B010BD00BF30B583B0044601A9FEF7E8FF00283CD1227C12F0400F39D012F0800F0CD00123E26904F1280101984078FEF7EFFC70BB237C03F07F03237463
:401B0000216A0198FFF71AF838BB656AEB7A43F02003EB72A26829462068FEF7D7FEE16805F11C00FEF75CFE0D4905F11600FEF757FE002105F11200FEF74EFE0122019B55
:401B4000DA700198FFF754FD237C23F04003237403E002E001E00120FFE703B030BD00BF0000214E10B594B0044601A8FEF790FF03E0013401A8FFF769FF21780029F8D10A
:401B800001A8FFF783FF14B010BD00BFFEE700BFF0B40022174611E050F82760F3B226F0FF0608E001EB420511F812406D78A5550132013BDBB2002BF4D10137092FEBD9F8
:401BC000F0BC7047064B1B78DBB203F00701054A11701B09013213704422034B1A707047CF0100496E5800407658004008B50A46002100F044FA08BD38B53B22244B1A80D6
:401C0000182202331A70022203F27E231A7008224FF040231A70032103F5007319701D4B1B78DBB21C490B701C4B1A8041F25122023B1A80002419250CE0194B1B7803F0DB
:401C4000010343EA440404F003044FF4F07000F0CFF9013D0DB1032CEFD115B90320FFF795FF104B4FF480721A8007221A7000220D490A704820023108701A700222033B61
:401C80001A700A4A137843F00103137038BD00BF8040004008010049A146004022420040254200400440004006400040A243004008B500F0D9F908BD38B572B600240CE0F1
:401CC0002D4D630019194A0011462A44084691882858FFF78BFF0134E4B2082CF0D900240BE02549A3001819420088188022C16B806BFFF7DDFF0134E4B2002CF1D01F49B9
:401D00004FF09040FFF744FF1D4A137843F0020313701032137843F002031370194C237843F040032370A2F58632513A137843F010031370082214491448FFF7B9FF082234
:401D400013491448FFF7B4FF134A137843F008031370124D61232B70FFF74EFF81232B7001220F4B1A70FFF72DFF0E2221460D48FFF79EFF38BD00BFCC20000028000048A1
:401D800003500140A0430040F0010048C2510040F801004812510040224300400048004004000840B043004008B500F031F903680C2B00D1FEE7FEE708B5104E104D16E0CE
:401DC00029686B68AC68002204E051F8040B43F8040B0432A242F8D1E868002203E0002143F8041B04328242F9D11035013E002EE6D100F013F9FEF745F9FEE701000000CE
:401E00003421000008B5104A104B1A60104A136843F40073136000230AE0032B03D80D4A52F8231000E00C490C4A42F8231001332F2BF2D90A4B1A780A4B1A70074A0A4BC8
:401E40001A60FFF739FF08BD0004FA050CED00E014ED00E000000000A91D00000080FF1FBC760040C080FF1F08ED00E010B5044605E0084B186800F0BBF8A4F50044B4F53F
:401E8000004FF6D8034B586800FB04F000F0B0F810BD00BFD080FF1F08B5034B1B7A00FB03F000F0A5F808BDD080FF1F08B500F0A7F8094A137843F020031370A2F201127E
:401EC000137843F0100313700132137843F01003137000F099F808BD99650040014B1878704700BF68640040014B1878704700BF69640040034B1B7813F0040FFAD0024BB8
:401F0000187070476864004049650040014B1878704700BF5965004008B501E00A4B1B780A4B1B7813F0200FF8D100F069F8084B1A7842F001021A701A7802F0FE021A70AC
:401F400000F062F808BD00BF59650040696400409965004008B50F22064B1A70FFF7DCFFFFF7BCFFFFF7C0FF0023034A13700132137008BD896500408864004008B5054B75
:401F80001B7823B9FFF7E6FF0122024B1A70FFF78DFF08BD7281FF1F044A137803F0FB03800000F0040018431070704710510040044A137803F0EF03000100F010001843FA
:401FC00010707047C0510040024B1878C0F30010704700BFC1510040044A137803F0DF03400100F02000184310707047C05100400230800803D000BF01380046FCD17047C0
:40200000EFF3108072B6704780F31088704700BF014B1868704700BF4081FF1F0E4B70B51E460E4C0025E41AA410A54204D056F8253098470135F8E700F06AF8084B094C4E
:402040001E46E41AA4100025A54204D056F8253098470135F8E770BD1C2100001C2100001C2100002421000010B5431E0A44914204D011F8014B03F8014FF8E710BD0346FA
:402080000244934202D003F8011BFAE77047000000000000546573742E7478740000000048656C6C6F20576F726C640D0A000000222A2B2C3A3B3C3D3E3F5B5D7C7F000062
:4020C000464154004641543332000000005100401000205100405000F0510040100000000140001000140140800400190140000300400140000A004C014000020050014060
:4021000020000000801801407001004880004300F8B500BFF8BC08BC9E4670474D000000051E0000F8B500BFF8BC08BC9E4670472900000048210000C880FF1F8000000044
:40214000300000000000000000000000010000000000E02EC05D00001800000000366E01000000000000000000000000000000000000000000000000000000000000000046
:402180000E210000000000000000000000000000000000000000000000000000000000000000000000000000000000000000000000000000000000000000000000000000F0
:4021C000E080FF1F00000000000000000000000000000000000000000000000000000000000000000000000000000000000000000000000000000000000000000000000061
:40220000000000000000000000000000000000000000000000000000000000000000000000000000000000000000000000000000000000000000000000000000000000009E
:40224000000000000000000000000000000000000000000000000000000000000000000000000000000000000000000000000000000000000000000000000000000000005E
:40228000000000000000000000000000000000000000000000000000000000000000000000000000000000000000000000000000000000000000000000000000000000001E
:4022C00000000000000000000000000000000000000000000000000000000000000000000000000000000000000000000000000000000000000000000000000000000000DE
:020000040003F7
:0200000480007A
:400000000252004001650040330801402509014038190140011B014001470140084C0140024D01400450014008180910890F0C090E061002120D1405160A1C031E0C300F7D
:400040003A02540958045B045F018113828083048402860D888D89058B3A8C0D8E809042920894409720990E9C119E22A08DA48DA862AA14AC8DAD04AF39B070B20FB330C0
:40008000B480B50FB920BA0ABE10D440D804D904DB04DF01015A0240048009080A900B010E800F1110201392188019081A801B121C401E8022142B0232143B115E515F0475
:4000C000626063206402800281048604C08FC2BDC40FCA08CC06CE05D6F0D81EE4080008016002400A800B1110281382180119241A41200E23112A042B0230A83201380431
:4001000039403B11400142044302480149024B14510852646040682869506A026B80708073028120904092809550964197159D069F82A302A420A508A620C00FC20DC40F8B
:40014000CA0ACC0FCE0FD00DD20CD801E401B20487040C015708670883089308C204D402D801B001EE0400010C0110011C01000060130064043800C0012100D804988002F9
:40018000569A09000A02109800980002079A380084000000840200008000040084FC00030800020F7FE0801320000028000045006405100002DEFB0C1FFFFFFF2200F008E0
:4001C000040000000000022C04040404000000010000C00040011011C001001140014001000000000000000000000000000000000030300000000000201F1F001800000070
:4002000000000000000000000000000000000000000000000000000000000000000000000000000000000000000000000000000000000000000000000000000000000000BE
:40024000000000000000000000000000000000000000000000000000000000000000000000000000000000000000000000000000000000000000000000000000000000007E
:40028000000000000000000000000000000000000000000000000000000000000000000000000000000000000000000000000000000000000000000000000000000000003E
:4002C00000000000000000000000000000000000000000000000000000000000000000000000000000000000000000000000000000000000000000000000000000000000FE
:0200000490006A
:0400000000004005B7
:0200000490105A
:04000000BC90ACAF55
:0200000490303A
:0200000064009A
:0200000490402A
:4000000000000000000000000000000000000000000000000000000000000000000000000000000000000000000000000000000000000000000000000000000000000000C0
:400040000000000000000000000000000000000000000000000000000000000000000000000000000000000000000000000000000000000000000000000000000000000080
:400080000000000000000000000000000000000000000000000000000000000000000000000000000000000000000000000000000000000000000000000000000000000040
:4000C0000000000000000000000000000000000000000000000000000000000000000000000000000000000000000000000000000000000000000000000000000000000000
:0200000490501A
:0C00000000012E12706900012E20D4694E
:00000001FF